{
  "_format": "hh-sol-artifact-1",
  "contractName": "MyEpicNFT",
  "sourceName": "contracts/MyEpicNFT.sol",
  "abi": [
    {
      "inputs": [],
      "stateMutability": "nonpayable",
      "type": "constructor"
    },
    {
      "anonymous": false,
      "inputs": [
        {
          "indexed": true,
          "internalType": "address",
          "name": "owner",
          "type": "address"
        },
        {
          "indexed": true,
          "internalType": "address",
          "name": "approved",
          "type": "address"
        },
        {
          "indexed": true,
          "internalType": "uint256",
          "name": "tokenId",
          "type": "uint256"
        }
      ],
      "name": "Approval",
      "type": "event"
    },
    {
      "anonymous": false,
      "inputs": [
        {
          "indexed": true,
          "internalType": "address",
          "name": "owner",
          "type": "address"
        },
        {
          "indexed": true,
          "internalType": "address",
          "name": "operator",
          "type": "address"
        },
        {
          "indexed": false,
          "internalType": "bool",
          "name": "approved",
          "type": "bool"
        }
      ],
      "name": "ApprovalForAll",
      "type": "event"
    },
    {
      "anonymous": false,
      "inputs": [
        {
          "indexed": false,
          "internalType": "address",
          "name": "sender",
          "type": "address"
        },
        {
          "indexed": false,
          "internalType": "uint256",
          "name": "tokenId",
          "type": "uint256"
        }
      ],
      "name": "NewEpicNFTMinted",
      "type": "event"
    },
    {
      "anonymous": false,
      "inputs": [
        {
          "indexed": true,
          "internalType": "address",
          "name": "from",
          "type": "address"
        },
        {
          "indexed": true,
          "internalType": "address",
          "name": "to",
          "type": "address"
        },
        {
          "indexed": true,
          "internalType": "uint256",
          "name": "tokenId",
          "type": "uint256"
        }
      ],
      "name": "Transfer",
      "type": "event"
    },
    {
      "inputs": [
        {
          "internalType": "address",
          "name": "to",
          "type": "address"
        },
        {
          "internalType": "uint256",
          "name": "tokenId",
          "type": "uint256"
        }
      ],
      "name": "approve",
      "outputs": [],
      "stateMutability": "nonpayable",
      "type": "function"
    },
    {
      "inputs": [
        {
          "internalType": "address",
          "name": "owner",
          "type": "address"
        }
      ],
      "name": "balanceOf",
      "outputs": [
        {
          "internalType": "uint256",
          "name": "",
          "type": "uint256"
        }
      ],
      "stateMutability": "view",
      "type": "function"
    },
    {
      "inputs": [
        {
          "internalType": "uint256",
          "name": "tokenId",
          "type": "uint256"
        }
      ],
      "name": "getApproved",
      "outputs": [
        {
          "internalType": "address",
          "name": "",
          "type": "address"
        }
      ],
      "stateMutability": "view",
      "type": "function"
    },
    {
      "inputs": [],
      "name": "getTotalNFTsMintedSoFar",
      "outputs": [
        {
          "internalType": "uint256",
          "name": "",
          "type": "uint256"
        }
      ],
      "stateMutability": "view",
      "type": "function"
    },
    {
      "inputs": [
        {
          "internalType": "address",
          "name": "owner",
          "type": "address"
        },
        {
          "internalType": "address",
          "name": "operator",
          "type": "address"
        }
      ],
      "name": "isApprovedForAll",
      "outputs": [
        {
          "internalType": "bool",
          "name": "",
          "type": "bool"
        }
      ],
      "stateMutability": "view",
      "type": "function"
    },
    {
      "inputs": [],
      "name": "makeAnEpicNFT",
      "outputs": [],
      "stateMutability": "nonpayable",
      "type": "function"
    },
    {
      "inputs": [],
      "name": "name",
      "outputs": [
        {
          "internalType": "string",
          "name": "",
          "type": "string"
        }
      ],
      "stateMutability": "view",
      "type": "function"
    },
    {
      "inputs": [
        {
          "internalType": "uint256",
          "name": "tokenId",
          "type": "uint256"
        }
      ],
      "name": "ownerOf",
      "outputs": [
        {
          "internalType": "address",
          "name": "",
          "type": "address"
        }
      ],
      "stateMutability": "view",
      "type": "function"
    },
    {
      "inputs": [
        {
          "internalType": "uint256",
          "name": "tokenId",
          "type": "uint256"
        }
      ],
      "name": "pickRandomColor",
      "outputs": [
        {
          "internalType": "string",
          "name": "",
          "type": "string"
        }
      ],
      "stateMutability": "view",
      "type": "function"
    },
    {
      "inputs": [
        {
          "internalType": "uint256",
          "name": "tokenId",
          "type": "uint256"
        }
      ],
      "name": "pickRandomFirstWord",
      "outputs": [
        {
          "internalType": "string",
          "name": "",
          "type": "string"
        }
      ],
      "stateMutability": "view",
      "type": "function"
    },
    {
      "inputs": [
        {
          "internalType": "uint256",
          "name": "tokenId",
          "type": "uint256"
        }
      ],
      "name": "pickRandomSecondWord",
      "outputs": [
        {
          "internalType": "string",
          "name": "",
          "type": "string"
        }
      ],
      "stateMutability": "view",
      "type": "function"
    },
    {
      "inputs": [
        {
          "internalType": "uint256",
          "name": "tokenId",
          "type": "uint256"
        }
      ],
      "name": "pickRandomThirdWord",
      "outputs": [
        {
          "internalType": "string",
          "name": "",
          "type": "string"
        }
      ],
      "stateMutability": "view",
      "type": "function"
    },
    {
      "inputs": [
        {
          "internalType": "address",
          "name": "from",
          "type": "address"
        },
        {
          "internalType": "address",
          "name": "to",
          "type": "address"
        },
        {
          "internalType": "uint256",
          "name": "tokenId",
          "type": "uint256"
        }
      ],
      "name": "safeTransferFrom",
      "outputs": [],
      "stateMutability": "nonpayable",
      "type": "function"
    },
    {
      "inputs": [
        {
          "internalType": "address",
          "name": "from",
          "type": "address"
        },
        {
          "internalType": "address",
          "name": "to",
          "type": "address"
        },
        {
          "internalType": "uint256",
          "name": "tokenId",
          "type": "uint256"
        },
        {
          "internalType": "bytes",
          "name": "_data",
          "type": "bytes"
        }
      ],
      "name": "safeTransferFrom",
      "outputs": [],
      "stateMutability": "nonpayable",
      "type": "function"
    },
    {
      "inputs": [
        {
          "internalType": "address",
          "name": "operator",
          "type": "address"
        },
        {
          "internalType": "bool",
          "name": "approved",
          "type": "bool"
        }
      ],
      "name": "setApprovalForAll",
      "outputs": [],
      "stateMutability": "nonpayable",
      "type": "function"
    },
    {
      "inputs": [
        {
          "internalType": "bytes4",
          "name": "interfaceId",
          "type": "bytes4"
        }
      ],
      "name": "supportsInterface",
      "outputs": [
        {
          "internalType": "bool",
          "name": "",
          "type": "bool"
        }
      ],
      "stateMutability": "view",
      "type": "function"
    },
    {
      "inputs": [],
      "name": "symbol",
      "outputs": [
        {
          "internalType": "string",
          "name": "",
          "type": "string"
        }
      ],
      "stateMutability": "view",
      "type": "function"
    },
    {
      "inputs": [],
      "name": "tokenCount",
      "outputs": [
        {
          "internalType": "uint256",
          "name": "_value",
          "type": "uint256"
        }
      ],
      "stateMutability": "view",
      "type": "function"
    },
    {
      "inputs": [
        {
          "internalType": "uint256",
          "name": "tokenId",
          "type": "uint256"
        }
      ],
      "name": "tokenURI",
      "outputs": [
        {
          "internalType": "string",
          "name": "",
          "type": "string"
        }
      ],
      "stateMutability": "view",
      "type": "function"
    },
    {
      "inputs": [
        {
          "internalType": "address",
          "name": "from",
          "type": "address"
        },
        {
          "internalType": "address",
          "name": "to",
          "type": "address"
        },
        {
          "internalType": "uint256",
          "name": "tokenId",
          "type": "uint256"
        }
      ],
      "name": "transferFrom",
      "outputs": [],
      "stateMutability": "nonpayable",
      "type": "function"
    }
  ],
  "bytecode": "0x608060405260405180610100016040528060d3815260200162004f0c60d39139600990805190602001906200003692919062000f19565b5060405180608001604052806056815260200162004fdf60569139600a90805190602001906200006892919062000f19565b506040518061022001604052806040518060400160405280600881526020017f506f77657266756c00000000000000000000000000000000000000000000000081525081526020016040518060400160405280600781526020017f416d617a696e670000000000000000000000000000000000000000000000000081525081526020016040518060400160405280600981526020017f46616e746173746963000000000000000000000000000000000000000000000081525081526020016040518060400160405280600981526020017f576f6e64657266756c000000000000000000000000000000000000000000000081525081526020016040518060400160405280600581526020017f477265617400000000000000000000000000000000000000000000000000000081525081526020016040518060400160405280600581526020017f537570657200000000000000000000000000000000000000000000000000000081525081526020016040518060400160405280600a81526020017f496e6372656469626c650000000000000000000000000000000000000000000081525081526020016040518060400160405280600781526020017f417765736f6d650000000000000000000000000000000000000000000000000081525081526020016040518060400160405280600881526020017f466c61776c65737300000000000000000000000000000000000000000000000081525081526020016040518060400160405280600781526020017f506572666563740000000000000000000000000000000000000000000000000081525081526020016040518060400160405280600781526020017f5261646963616c0000000000000000000000000000000000000000000000000081525081526020016040518060400160405280600681526020017f547269636b79000000000000000000000000000000000000000000000000000081525081526020016040518060400160405280600681526020017f5374726f6e67000000000000000000000000000000000000000000000000000081525081526020016040518060400160405280600981526020017f526573696c69656e74000000000000000000000000000000000000000000000081525081526020016040518060400160405280600681526020017f446172696e67000000000000000000000000000000000000000000000000000081525081526020016040518060400160405280600581526020017f427261766500000000000000000000000000000000000000000000000000000081525081526020016040518060400160405280600a81526020017f436f75726167656f757300000000000000000000000000000000000000000000815250815250600b9060116200047092919062000faa565b50604051806101c001604052806040518060400160405280600381526020017f496365000000000000000000000000000000000000000000000000000000000081525081526020016040518060400160405280600481526020017f466972650000000000000000000000000000000000000000000000000000000081525081526020016040518060400160405280600481526020017f57696e640000000000000000000000000000000000000000000000000000000081525081526020016040518060400160405280600581526020017f456172746800000000000000000000000000000000000000000000000000000081525081526020016040518060400160405280600581526020017f576174657200000000000000000000000000000000000000000000000000000081525081526020016040518060400160405280600481526020017f526f636b0000000000000000000000000000000000000000000000000000000081525081526020016040518060400160405280600581526020017f4c6967687400000000000000000000000000000000000000000000000000000081525081526020016040518060400160405280600481526020017f4461726b0000000000000000000000000000000000000000000000000000000081525081526020016040518060400160405280600781526020017f5468756e6465720000000000000000000000000000000000000000000000000081525081526020016040518060400160405280600681526020017f536861646f77000000000000000000000000000000000000000000000000000081525081526020016040518060400160405280600581526020017f447265616d00000000000000000000000000000000000000000000000000000081525081526020016040518060400160405280600581526020017f4e6967687400000000000000000000000000000000000000000000000000000081525081526020016040518060400160405280600581526020017f53746f726d00000000000000000000000000000000000000000000000000000081525081526020016040518060400160405280600881526020017f4879706e6f736973000000000000000000000000000000000000000000000000815250815250600c90600e620007c792919062001011565b506040518061022001604052806040518060400160405280600681526020017f57697a617264000000000000000000000000000000000000000000000000000081525081526020016040518060400160405280600881526020017f4d6167696369616e00000000000000000000000000000000000000000000000081525081526020016040518060400160405280600b81526020017f4e6563726f6d616e63657200000000000000000000000000000000000000000081525081526020016040518060400160405280600c81526020017f456c656d656e74616c697374000000000000000000000000000000000000000081525081526020016040518060400160405280600581526020017f576974636800000000000000000000000000000000000000000000000000000081525081526020016040518060400160405280600781526020017f5761726c6f636b0000000000000000000000000000000000000000000000000081525081526020016040518060400160405280600981526020017f536f72636572657373000000000000000000000000000000000000000000000081525081526020016040518060400160405280600681526020017f4d6173746572000000000000000000000000000000000000000000000000000081525081526020016040518060400160405280600581526020017f447275696400000000000000000000000000000000000000000000000000000081525081526020016040518060400160405280600681526020017f5368616d616e000000000000000000000000000000000000000000000000000081525081526020016040518060400160405280600681526020017f4f7261636c65000000000000000000000000000000000000000000000000000081525081526020016040518060400160405280600681526020017f4d7973746963000000000000000000000000000000000000000000000000000081525081526020016040518060400160405280600481526020017f536167650000000000000000000000000000000000000000000000000000000081525081526020016040518060400160405280600981526020017f416c6368656d697374000000000000000000000000000000000000000000000081525081526020016040518060400160405280600981526020017f456e6368616e746572000000000000000000000000000000000000000000000081525081526020016040518060400160405280600881526020017f536f726365726f7200000000000000000000000000000000000000000000000081525081526020016040518060400160405280600481526020017f4d61676500000000000000000000000000000000000000000000000000000000815250815250600d90601162000bcf92919062000faa565b506040518060c001604052806040518060400160405280600381526020017f726564000000000000000000000000000000000000000000000000000000000081525081526020016040518060400160405280600781526020017f233038433241380000000000000000000000000000000000000000000000000081525081526020016040518060400160405280600581526020017f626c61636b00000000000000000000000000000000000000000000000000000081525081526020016040518060400160405280600681526020017f79656c6c6f77000000000000000000000000000000000000000000000000000081525081526020016040518060400160405280600481526020017f626c75650000000000000000000000000000000000000000000000000000000081525081526020016040518060400160405280600581526020017f677265656e000000000000000000000000000000000000000000000000000000815250815250600e90600662000d4d92919062001078565b5034801562000d5b57600080fd5b506040518060400160405280601081526020017f45706963204d616769205469746c6573000000000000000000000000000000008152506040518060400160405280600581526020017f454d414749000000000000000000000000000000000000000000000000000000815250816000908051906020019062000de092919062000f19565b50806001908051906020019062000df992919062000f19565b50505062000e476040518060400160405280601e81526020017f54686973206973206d79204e465420636f6e74726163742e20576f616821000081525062000e4d60201b620013c31760201c565b62001299565b62000eed8160405160240162000e64919062001210565b6040516020818303038152906040527f41304fac000000000000000000000000000000000000000000000000000000007bffffffffffffffffffffffffffffffffffffffffffffffffffffffff19166020820180517bffffffffffffffffffffffffffffffffffffffffffffffffffffffff838183161783525050505062000ef060201b60201c565b50565b60008151905060006a636f6e736f6c652e6c6f679050602083016000808483855afa5050505050565b82805462000f279062001263565b90600052602060002090601f01602090048101928262000f4b576000855562000f97565b82601f1062000f6657805160ff191683800117855562000f97565b8280016001018555821562000f97579182015b8281111562000f9657825182559160200191906001019062000f79565b5b50905062000fa69190620010df565b5090565b82805482825590600052602060002090810192821562000ffe579160200282015b8281111562000ffd57825182908051906020019062000fec92919062000f19565b509160200191906001019062000fcb565b5b5090506200100d9190620010fe565b5090565b82805482825590600052602060002090810192821562001065579160200282015b82811115620010645782518290805190602001906200105392919062000f19565b509160200191906001019062001032565b5b509050620010749190620010fe565b5090565b828054828255906000526020600020908101928215620010cc579160200282015b82811115620010cb578251829080519060200190620010ba92919062000f19565b509160200191906001019062001099565b5b509050620010db9190620010fe565b5090565b5b80821115620010fa576000816000905550600101620010e0565b5090565b5b8082111562001122576000818162001118919062001126565b50600101620010ff565b5090565b508054620011349062001263565b6000825580601f1062001148575062001169565b601f016020900490600052602060002090810190620011689190620010df565b5b50565b600081519050919050565b600082825260208201905092915050565b60005b83811015620011a85780820151818401526020810190506200118b565b83811115620011b8576000848401525b50505050565b6000601f19601f8301169050919050565b6000620011dc826200116c565b620011e8818562001177565b9350620011fa81856020860162001188565b6200120581620011be565b840191505092915050565b600060208201905081810360008301526200122c8184620011cf565b905092915050565b7f4e487b7100000000000000000000000000000000000000000000000000000000600052602260045260246000fd5b600060028204905060018216806200127c57607f821691505b6020821081141562001293576200129262001234565b5b50919050565b613c6380620012a96000396000f3fe608060405234801561001057600080fd5b506004361061012c5760003560e01c806370a08231116100ad578063b88d4fde11610071578063b88d4fde14610369578063c575757a14610385578063c87b56dd146103b5578063de9d132f146103e5578063e985e9c5146103ef5761012c565b806370a08231146102b157806395d89b41146102e15780639f181b5e146102ff578063a22cb4651461031d578063b187301f146103395761012c565b806323b872dd116100f457806323b872dd146101e95780632de38d681461020557806342842e0e14610235578063514dc8c6146102515780636352211e146102815761012c565b806301ffc9a714610131578063060475901461016157806306fdde031461017f578063081812fc1461019d578063095ea7b3146101cd575b600080fd5b61014b600480360381019061014691906123d8565b61041f565b6040516101589190612420565b60405180910390f35b610169610501565b6040516101769190612454565b60405180910390f35b610187610512565b6040516101949190612508565b60405180910390f35b6101b760048036038101906101b29190612556565b6105a4565b6040516101c491906125c4565b60405180910390f35b6101e760048036038101906101e2919061260b565b610629565b005b61020360048036038101906101fe919061264b565b610741565b005b61021f600480360381019061021a9190612556565b6107a1565b60405161022c9190612508565b60405180910390f35b61024f600480360381019061024a919061264b565b610899565b005b61026b60048036038101906102669190612556565b6108b9565b6040516102789190612508565b60405180910390f35b61029b60048036038101906102969190612556565b6109b1565b6040516102a891906125c4565b60405180910390f35b6102cb60048036038101906102c6919061269e565b610a63565b6040516102d89190612454565b60405180910390f35b6102e9610b1b565b6040516102f69190612508565b60405180910390f35b610307610bad565b6040516103149190612454565b60405180910390f35b610337600480360381019061033291906126f7565b610bb9565b005b610353600480360381019061034e9190612556565b610d3a565b6040516103609190612508565b60405180910390f35b610383600480360381019061037e919061286c565b610e32565b005b61039f600480360381019061039a9190612556565b610e94565b6040516103ac9190612508565b60405180910390f35b6103cf60048036038101906103ca9190612556565b610f8c565b6040516103dc9190612508565b60405180910390f35b6103ed6110de565b005b610409600480360381019061040491906128ef565b61132f565b6040516104169190612420565b60405180910390f35b60007f80ac58cd000000000000000000000000000000000000000000000000000000007bffffffffffffffffffffffffffffffffffffffffffffffffffffffff1916827bffffffffffffffffffffffffffffffffffffffffffffffffffffffff191614806104ea57507f5b5e139f000000000000000000000000000000000000000000000000000000007bffffffffffffffffffffffffffffffffffffffffffffffffffffffff1916827bffffffffffffffffffffffffffffffffffffffffffffffffffffffff1916145b806104fa57506104f98261145c565b5b9050919050565b600061050d60086114c6565b905090565b6060600080546105219061295e565b80601f016020809104026020016040519081016040528092919081815260200182805461054d9061295e565b801561059a5780601f1061056f5761010080835404028352916020019161059a565b820191906000526020600020905b81548152906001019060200180831161057d57829003601f168201915b5050505050905090565b60006105af826114d4565b6105ee576040517f08c379a00000000000000000000000000000000000000000000000000000000081526004016105e590612a02565b60405180910390fd5b6004600083815260200190815260200160002060009054906101000a900473ffffffffffffffffffffffffffffffffffffffff169050919050565b6000610634826109b1565b90508073ffffffffffffffffffffffffffffffffffffffff168373ffffffffffffffffffffffffffffffffffffffff1614156106a5576040517f08c379a000000000000000000000000000000000000000000000000000000000815260040161069c90612a94565b60405180910390fd5b8073ffffffffffffffffffffffffffffffffffffffff166106c4611540565b73ffffffffffffffffffffffffffffffffffffffff1614806106f357506106f2816106ed611540565b61132f565b5b610732576040517f08c379a000000000000000000000000000000000000000000000000000000000815260040161072990612b26565b60405180910390fd5b61073c8383611548565b505050565b61075261074c611540565b82611601565b610791576040517f08c379a000000000000000000000000000000000000000000000000000000000815260040161078890612bb8565b60405180910390fd5b61079c8383836116df565b505050565b606060006107d56107b18461193b565b6040516020016107c19190612c60565b604051602081830303815290604052611a9c565b9050600b80549050816107e89190612cb1565b9050600b81815481106107fe576107fd612ce2565b5b9060005260206000200180546108139061295e565b80601f016020809104026020016040519081016040528092919081815260200182805461083f9061295e565b801561088c5780601f106108615761010080835404028352916020019161088c565b820191906000526020600020905b81548152906001019060200180831161086f57829003601f168201915b5050505050915050919050565b6108b483838360405180602001604052806000815250610e32565b505050565b606060006108ed6108c98461193b565b6040516020016108d99190612d5d565b604051602081830303815290604052611a9c565b9050600e80549050816109009190612cb1565b9050600e818154811061091657610915612ce2565b5b90600052602060002001805461092b9061295e565b80601f01602080910402602001604051908101604052809291908181526020018280546109579061295e565b80156109a45780601f10610979576101008083540402835291602001916109a4565b820191906000526020600020905b81548152906001019060200180831161098757829003601f168201915b5050505050915050919050565b6000806002600084815260200190815260200160002060009054906101000a900473ffffffffffffffffffffffffffffffffffffffff169050600073ffffffffffffffffffffffffffffffffffffffff168173ffffffffffffffffffffffffffffffffffffffff161415610a5a576040517f08c379a0000000000000000000000000000000000000000000000000000000008152600401610a5190612df1565b60405180910390fd5b80915050919050565b60008073ffffffffffffffffffffffffffffffffffffffff168273ffffffffffffffffffffffffffffffffffffffff161415610ad4576040517f08c379a0000000000000000000000000000000000000000000000000000000008152600401610acb90612e83565b60405180910390fd5b600360008373ffffffffffffffffffffffffffffffffffffffff1673ffffffffffffffffffffffffffffffffffffffff168152602001908152602001600020549050919050565b606060018054610b2a9061295e565b80601f0160208091040260200160405190810160405280929190818152602001828054610b569061295e565b8015610ba35780601f10610b7857610100808354040283529160200191610ba3565b820191906000526020600020905b815481529060010190602001808311610b8657829003601f168201915b5050505050905090565b60088060000154905081565b610bc1611540565b73ffffffffffffffffffffffffffffffffffffffff168273ffffffffffffffffffffffffffffffffffffffff161415610c2f576040517f08c379a0000000000000000000000000000000000000000000000000000000008152600401610c2690612eef565b60405180910390fd5b8060056000610c3c611540565b73ffffffffffffffffffffffffffffffffffffffff1673ffffffffffffffffffffffffffffffffffffffff16815260200190815260200160002060008473ffffffffffffffffffffffffffffffffffffffff1673ffffffffffffffffffffffffffffffffffffffff16815260200190815260200160002060006101000a81548160ff0219169083151502179055508173ffffffffffffffffffffffffffffffffffffffff16610ce9611540565b73ffffffffffffffffffffffffffffffffffffffff167f17307eab39ab6107e8899845ad3d59bd9653f200f220920489ca2b5937696c3183604051610d2e9190612420565b60405180910390a35050565b60606000610d6e610d4a8461193b565b604051602001610d5a9190612f5b565b604051602081830303815290604052611a9c565b9050600c8054905081610d819190612cb1565b9050600c8181548110610d9757610d96612ce2565b5b906000526020600020018054610dac9061295e565b80601f0160208091040260200160405190810160405280929190818152602001828054610dd89061295e565b8015610e255780601f10610dfa57610100808354040283529160200191610e25565b820191906000526020600020905b815481529060010190602001808311610e0857829003601f168201915b5050505050915050919050565b610e43610e3d611540565b83611601565b610e82576040517f08c379a0000000000000000000000000000000000000000000000000000000008152600401610e7990612bb8565b60405180910390fd5b610e8e84848484611acf565b50505050565b60606000610ec8610ea48461193b565b604051602001610eb49190612fc9565b604051602081830303815290604052611a9c565b9050600d8054905081610edb9190612cb1565b9050600d8181548110610ef157610ef0612ce2565b5b906000526020600020018054610f069061295e565b80601f0160208091040260200160405190810160405280929190818152602001828054610f329061295e565b8015610f7f5780601f10610f5457610100808354040283529160200191610f7f565b820191906000526020600020905b815481529060010190602001808311610f6257829003601f168201915b5050505050915050919050565b6060610f97826114d4565b610fd6576040517f08c379a0000000000000000000000000000000000000000000000000000000008152600401610fcd9061305d565b60405180910390fd5b6000600660008481526020019081526020016000208054610ff69061295e565b80601f01602080910402602001604051908101604052809291908181526020018280546110229061295e565b801561106f5780601f106110445761010080835404028352916020019161106f565b820191906000526020600020905b81548152906001019060200180831161105257829003601f168201915b505050505090506000611080611b2b565b90506000815114156110965781925050506110d9565b6000825111156110cb5780826040516020016110b392919061307d565b604051602081830303815290604052925050506110d9565b6110d484611b42565b925050505b919050565b60326110ea60086114c6565b111561112b576040517f08c379a000000000000000000000000000000000000000000000000000000000815260040161112290613113565b60405180910390fd5b600061113760076114c6565b90506000611144826107a1565b9050600061115183610d3a565b9050600061115e84610e94565b9050600083838360405160200161117793929190613133565b60405160208183030381529060405290506000611193866108b9565b90506000600982600a856040516020016111b09493929190613244565b604051602081830303815290604052905060006111f5846111d084611be9565b6040516020016111e19291906133e3565b604051602081830303815290604052611be9565b905060008160405160200161120a9190613474565b60405160208183030381529060405290506112596040518060400160405280601581526020017f0a2d2d2d2d2d2d2d2d2d2d2d2d2d2d2d2d2d2d2d2d00000000000000000000008152506113c3565b611262816113c3565b6112a06040518060400160405280601581526020017f2d2d2d2d2d2d2d2d2d2d2d2d2d2d2d2d2d2d2d2d0a00000000000000000000008152506113c3565b6112aa338a611d81565b6112b48982611d9f565b6112be6007611e13565b6112c86008611e13565b6112eb604051806060016040528060258152602001613bc9602591398a33611e29565b7febb98688741ffa4c7589bf325de30cf7becb63de567842e1ccdb6cb949fdc82c338a60405161131c929190613496565b60405180910390a1505050505050505050565b6000600560008473ffffffffffffffffffffffffffffffffffffffff1673ffffffffffffffffffffffffffffffffffffffff16815260200190815260200160002060008373ffffffffffffffffffffffffffffffffffffffff1673ffffffffffffffffffffffffffffffffffffffff16815260200190815260200160002060009054906101000a900460ff16905092915050565b611459816040516024016113d79190612508565b6040516020818303038152906040527f41304fac000000000000000000000000000000000000000000000000000000007bffffffffffffffffffffffffffffffffffffffffffffffffffffffff19166020820180517bffffffffffffffffffffffffffffffffffffffffffffffffffffffff8381831617835250505050611ec8565b50565b60007f01ffc9a7000000000000000000000000000000000000000000000000000000007bffffffffffffffffffffffffffffffffffffffffffffffffffffffff1916827bffffffffffffffffffffffffffffffffffffffffffffffffffffffff1916149050919050565b600081600001549050919050565b60008073ffffffffffffffffffffffffffffffffffffffff166002600084815260200190815260200160002060009054906101000a900473ffffffffffffffffffffffffffffffffffffffff1673ffffffffffffffffffffffffffffffffffffffff1614159050919050565b600033905090565b816004600083815260200190815260200160002060006101000a81548173ffffffffffffffffffffffffffffffffffffffff021916908373ffffffffffffffffffffffffffffffffffffffff160217905550808273ffffffffffffffffffffffffffffffffffffffff166115bb836109b1565b73ffffffffffffffffffffffffffffffffffffffff167f8c5be1e5ebec7d5bd14f71427d1e84f3dd0314c0f7b2291e5b200ac8c7c3b92560405160405180910390a45050565b600061160c826114d4565b61164b576040517f08c379a000000000000000000000000000000000000000000000000000000000815260040161164290613531565b60405180910390fd5b6000611656836109b1565b90508073ffffffffffffffffffffffffffffffffffffffff168473ffffffffffffffffffffffffffffffffffffffff1614806116c557508373ffffffffffffffffffffffffffffffffffffffff166116ad846105a4565b73ffffffffffffffffffffffffffffffffffffffff16145b806116d657506116d5818561132f565b5b91505092915050565b8273ffffffffffffffffffffffffffffffffffffffff166116ff826109b1565b73ffffffffffffffffffffffffffffffffffffffff1614611755576040517f08c379a000000000000000000000000000000000000000000000000000000000815260040161174c906135c3565b60405180910390fd5b600073ffffffffffffffffffffffffffffffffffffffff168273ffffffffffffffffffffffffffffffffffffffff1614156117c5576040517f08c379a00000000000000000000000000000000000000000000000000000000081526004016117bc90613655565b60405180910390fd5b6117d0838383611ef1565b6117db600082611548565b6001600360008573ffffffffffffffffffffffffffffffffffffffff1673ffffffffffffffffffffffffffffffffffffffff168152602001908152602001600020600082825461182b91906136a4565b925050819055506001600360008473ffffffffffffffffffffffffffffffffffffffff1673ffffffffffffffffffffffffffffffffffffffff168152602001908152602001600020600082825461188291906136d8565b92505081905550816002600083815260200190815260200160002060006101000a81548173ffffffffffffffffffffffffffffffffffffffff021916908373ffffffffffffffffffffffffffffffffffffffff160217905550808273ffffffffffffffffffffffffffffffffffffffff168473ffffffffffffffffffffffffffffffffffffffff167fddf252ad1be2c89b69c2b068fc378daa952ba7f163c4a11628f55a4df523b3ef60405160405180910390a4505050565b60606000821415611983576040518060400160405280600181526020017f30000000000000000000000000000000000000000000000000000000000000008152509050611a97565b600082905060005b600082146119b557808061199e9061372e565b915050600a826119ae9190613777565b915061198b565b60008167ffffffffffffffff8111156119d1576119d0612741565b5b6040519080825280601f01601f191660200182016040528015611a035781602001600182028036833780820191505090505b5090505b60008514611a9057600182611a1c91906136a4565b9150600a85611a2b9190612cb1565b6030611a3791906136d8565b60f81b818381518110611a4d57611a4c612ce2565b5b60200101907effffffffffffffffffffffffffffffffffffffffffffffffffffffffffffff1916908160001a905350600a85611a899190613777565b9450611a07565b8093505050505b919050565b600081604051602001611aaf91906137a8565b6040516020818303038152906040528051906020012060001c9050919050565b611ada8484846116df565b611ae684848484611ef6565b611b25576040517f08c379a0000000000000000000000000000000000000000000000000000000008152600401611b1c90613831565b60405180910390fd5b50505050565b606060405180602001604052806000815250905090565b6060611b4d826114d4565b611b8c576040517f08c379a0000000000000000000000000000000000000000000000000000000008152600401611b83906138c3565b60405180910390fd5b6000611b96611b2b565b90506000815111611bb65760405180602001604052806000815250611be1565b80611bc08461193b565b604051602001611bd192919061307d565b6040516020818303038152906040525b915050919050565b60606000825190506000811415611c125760405180602001604052806000815250915050611d7c565b60006003600283611c2391906136d8565b611c2d9190613777565b6004611c3991906138e3565b90506000602082611c4a91906136d8565b67ffffffffffffffff811115611c6357611c62612741565b5b6040519080825280601f01601f191660200182016040528015611c955781602001600182028036833780820191505090505b5090506000604051806060016040528060408152602001613bee604091399050600181016020830160005b86811015611d395760038101905062ffffff818a015116603f8160121c168401518060081b905060ff603f83600c1c1686015116810190508060081b905060ff603f8360061c1686015116810190508060081b905060ff603f831686015116810190508060e01b90508084526004840193505050611cc0565b506003860660018114611d535760028114611d6357611d6e565b613d3d60f01b6002830352611d6e565b603d60f81b60018303525b508484525050819450505050505b919050565b611d9b82826040518060200160405280600081525061208d565b5050565b611da8826114d4565b611de7576040517f08c379a0000000000000000000000000000000000000000000000000000000008152600401611dde906139af565b60405180910390fd5b80600660008481526020019081526020016000209080519060200190611e0e9291906122c9565b505050565b6001816000016000828254019250508190555050565b611ec3838383604051602401611e41939291906139cf565b6040516020818303038152906040527fe3849f79000000000000000000000000000000000000000000000000000000007bffffffffffffffffffffffffffffffffffffffffffffffffffffffff19166020820180517bffffffffffffffffffffffffffffffffffffffffffffffffffffffff8381831617835250505050611ec8565b505050565b60008151905060006a636f6e736f6c652e6c6f679050602083016000808483855afa5050505050565b505050565b6000611f178473ffffffffffffffffffffffffffffffffffffffff166120e8565b15612080578373ffffffffffffffffffffffffffffffffffffffff1663150b7a02611f40611540565b8786866040518563ffffffff1660e01b8152600401611f629493929190613a62565b602060405180830381600087803b158015611f7c57600080fd5b505af1925050508015611fad57506040513d601f19601f82011682018060405250810190611faa9190613ac3565b60015b612030573d8060008114611fdd576040519150601f19603f3d011682016040523d82523d6000602084013e611fe2565b606091505b50600081511415612028576040517f08c379a000000000000000000000000000000000000000000000000000000000815260040161201f90613831565b60405180910390fd5b805181602001fd5b63150b7a0260e01b7bffffffffffffffffffffffffffffffffffffffffffffffffffffffff1916817bffffffffffffffffffffffffffffffffffffffffffffffffffffffff191614915050612085565b600190505b949350505050565b61209783836120fb565b6120a46000848484611ef6565b6120e3576040517f08c379a00000000000000000000000000000000000000000000000000000000081526004016120da90613831565b60405180910390fd5b505050565b600080823b905060008111915050919050565b600073ffffffffffffffffffffffffffffffffffffffff168273ffffffffffffffffffffffffffffffffffffffff16141561216b576040517f08c379a000000000000000000000000000000000000000000000000000000000815260040161216290613b3c565b60405180910390fd5b612174816114d4565b156121b4576040517f08c379a00000000000000000000000000000000000000000000000000000000081526004016121ab90613ba8565b60405180910390fd5b6121c060008383611ef1565b6001600360008473ffffffffffffffffffffffffffffffffffffffff1673ffffffffffffffffffffffffffffffffffffffff168152602001908152602001600020600082825461221091906136d8565b92505081905550816002600083815260200190815260200160002060006101000a81548173ffffffffffffffffffffffffffffffffffffffff021916908373ffffffffffffffffffffffffffffffffffffffff160217905550808273ffffffffffffffffffffffffffffffffffffffff16600073ffffffffffffffffffffffffffffffffffffffff167fddf252ad1be2c89b69c2b068fc378daa952ba7f163c4a11628f55a4df523b3ef60405160405180910390a45050565b8280546122d59061295e565b90600052602060002090601f0160209004810192826122f7576000855561233e565b82601f1061231057805160ff191683800117855561233e565b8280016001018555821561233e579182015b8281111561233d578251825591602001919060010190612322565b5b50905061234b919061234f565b5090565b5b80821115612368576000816000905550600101612350565b5090565b6000604051905090565b600080fd5b600080fd5b60007fffffffff0000000000000000000000000000000000000000000000000000000082169050919050565b6123b581612380565b81146123c057600080fd5b50565b6000813590506123d2816123ac565b92915050565b6000602082840312156123ee576123ed612376565b5b60006123fc848285016123c3565b91505092915050565b60008115159050919050565b61241a81612405565b82525050565b60006020820190506124356000830184612411565b92915050565b6000819050919050565b61244e8161243b565b82525050565b60006020820190506124696000830184612445565b92915050565b600081519050919050565b600082825260208201905092915050565b60005b838110156124a957808201518184015260208101905061248e565b838111156124b8576000848401525b50505050565b6000601f19601f8301169050919050565b60006124da8261246f565b6124e4818561247a565b93506124f481856020860161248b565b6124fd816124be565b840191505092915050565b6000602082019050818103600083015261252281846124cf565b905092915050565b6125338161243b565b811461253e57600080fd5b50565b6000813590506125508161252a565b92915050565b60006020828403121561256c5761256b612376565b5b600061257a84828501612541565b91505092915050565b600073ffffffffffffffffffffffffffffffffffffffff82169050919050565b60006125ae82612583565b9050919050565b6125be816125a3565b82525050565b60006020820190506125d960008301846125b5565b92915050565b6125e8816125a3565b81146125f357600080fd5b50565b600081359050612605816125df565b92915050565b6000806040838503121561262257612621612376565b5b6000612630858286016125f6565b925050602061264185828601612541565b9150509250929050565b60008060006060848603121561266457612663612376565b5b6000612672868287016125f6565b9350506020612683868287016125f6565b925050604061269486828701612541565b9150509250925092565b6000602082840312156126b4576126b3612376565b5b60006126c2848285016125f6565b91505092915050565b6126d481612405565b81146126df57600080fd5b50565b6000813590506126f1816126cb565b92915050565b6000806040838503121561270e5761270d612376565b5b600061271c858286016125f6565b925050602061272d858286016126e2565b9150509250929050565b600080fd5b600080fd5b7f4e487b7100000000000000000000000000000000000000000000000000000000600052604160045260246000fd5b612779826124be565b810181811067ffffffffffffffff8211171561279857612797612741565b5b80604052505050565b60006127ab61236c565b90506127b78282612770565b919050565b600067ffffffffffffffff8211156127d7576127d6612741565b5b6127e0826124be565b9050602081019050919050565b82818337600083830152505050565b600061280f61280a846127bc565b6127a1565b90508281526020810184848401111561282b5761282a61273c565b5b6128368482856127ed565b509392505050565b600082601f83011261285357612852612737565b5b81356128638482602086016127fc565b91505092915050565b6000806000806080858703121561288657612885612376565b5b6000612894878288016125f6565b94505060206128a5878288016125f6565b93505060406128b687828801612541565b925050606085013567ffffffffffffffff8111156128d7576128d661237b565b5b6128e38782880161283e565b91505092959194509250565b6000806040838503121561290657612905612376565b5b6000612914858286016125f6565b9250506020612925858286016125f6565b9150509250929050565b7f4e487b7100000000000000000000000000000000000000000000000000000000600052602260045260246000fd5b6000600282049050600182168061297657607f821691505b6020821081141561298a5761298961292f565b5b50919050565b7f4552433732313a20617070726f76656420717565727920666f72206e6f6e657860008201527f697374656e7420746f6b656e0000000000000000000000000000000000000000602082015250565b60006129ec602c8361247a565b91506129f782612990565b604082019050919050565b60006020820190508181036000830152612a1b816129df565b9050919050565b7f4552433732313a20617070726f76616c20746f2063757272656e74206f776e6560008201527f7200000000000000000000000000000000000000000000000000000000000000602082015250565b6000612a7e60218361247a565b9150612a8982612a22565b604082019050919050565b60006020820190508181036000830152612aad81612a71565b9050919050565b7f4552433732313a20617070726f76652063616c6c6572206973206e6f74206f7760008201527f6e6572206e6f7220617070726f76656420666f7220616c6c0000000000000000602082015250565b6000612b1060388361247a565b9150612b1b82612ab4565b604082019050919050565b60006020820190508181036000830152612b3f81612b03565b9050919050565b7f4552433732313a207472616e736665722063616c6c6572206973206e6f74206f60008201527f776e6572206e6f7220617070726f766564000000000000000000000000000000602082015250565b6000612ba260318361247a565b9150612bad82612b46565b604082019050919050565b60006020820190508181036000830152612bd181612b95565b9050919050565b600081905092915050565b7f46495253545f574f524400000000000000000000000000000000000000000000600082015250565b6000612c19600a83612bd8565b9150612c2482612be3565b600a82019050919050565b6000612c3a8261246f565b612c448185612bd8565b9350612c5481856020860161248b565b80840191505092915050565b6000612c6b82612c0c565b9150612c778284612c2f565b915081905092915050565b7f4e487b7100000000000000000000000000000000000000000000000000000000600052601260045260246000fd5b6000612cbc8261243b565b9150612cc78361243b565b925082612cd757612cd6612c82565b5b828206905092915050565b7f4e487b7100000000000000000000000000000000000000000000000000000000600052603260045260246000fd5b7f434f4c4f52000000000000000000000000000000000000000000000000000000600082015250565b6000612d47600583612bd8565b9150612d5282612d11565b600582019050919050565b6000612d6882612d3a565b9150612d748284612c2f565b915081905092915050565b7f4552433732313a206f776e657220717565727920666f72206e6f6e657869737460008201527f656e7420746f6b656e0000000000000000000000000000000000000000000000602082015250565b6000612ddb60298361247a565b9150612de682612d7f565b604082019050919050565b60006020820190508181036000830152612e0a81612dce565b9050919050565b7f4552433732313a2062616c616e636520717565727920666f7220746865207a6560008201527f726f206164647265737300000000000000000000000000000000000000000000602082015250565b6000612e6d602a8361247a565b9150612e7882612e11565b604082019050919050565b60006020820190508181036000830152612e9c81612e60565b9050919050565b7f4552433732313a20617070726f766520746f2063616c6c657200000000000000600082015250565b6000612ed960198361247a565b9150612ee482612ea3565b602082019050919050565b60006020820190508181036000830152612f0881612ecc565b9050919050565b7f5345434f4e445f574f5244000000000000000000000000000000000000000000600082015250565b6000612f45600b83612bd8565b9150612f5082612f0f565b600b82019050919050565b6000612f6682612f38565b9150612f728284612c2f565b915081905092915050565b7f54484952445f574f524400000000000000000000000000000000000000000000600082015250565b6000612fb3600a83612bd8565b9150612fbe82612f7d565b600a82019050919050565b6000612fd482612fa6565b9150612fe08284612c2f565b915081905092915050565b7f45524337323155524953746f726167653a2055524920717565727920666f722060008201527f6e6f6e6578697374656e7420746f6b656e000000000000000000000000000000602082015250565b600061304760318361247a565b915061305282612feb565b604082019050919050565b600060208201905081810360008301526130768161303a565b9050919050565b60006130898285612c2f565b91506130958284612c2f565b91508190509392505050565b7f54686572652061726520616c72656164792035302065706963207469746c657360008201527f206d696e7465642e000000000000000000000000000000000000000000000000602082015250565b60006130fd60288361247a565b9150613108826130a1565b604082019050919050565b6000602082019050818103600083015261312c816130f0565b9050919050565b600061313f8286612c2f565b915061314b8285612c2f565b91506131578284612c2f565b9150819050949350505050565b60008190508160005260206000209050919050565b600081546131868161295e565b6131908186612bd8565b945060018216600081146131ab57600181146131bc576131ef565b60ff198316865281860193506131ef565b6131c585613164565b60005b838110156131e7578154818901526001820191506020810190506131c8565b838801955050505b50505092915050565b7f3c2f746578743e3c2f7376673e00000000000000000000000000000000000000600082015250565b600061322e600d83612bd8565b9150613239826131f8565b600d82019050919050565b60006132508287613179565b915061325c8286612c2f565b91506132688285613179565b91506132748284612c2f565b915061327f82613221565b915081905095945050505050565b7f7b226e616d65223a202200000000000000000000000000000000000000000000600082015250565b60006132c3600a83612bd8565b91506132ce8261328d565b600a82019050919050565b7f222c20226465736372697074696f6e223a20224120686967686c79206163636c60008201527f61696d656420636f6c6c656374696f6e206f6620737175617265732e222c202260208201527f696d616765223a2022646174613a696d6167652f7376672b786d6c3b6261736560408201527f36342c0000000000000000000000000000000000000000000000000000000000606082015250565b6000613381606383612bd8565b915061338c826132d9565b606382019050919050565b7f227d000000000000000000000000000000000000000000000000000000000000600082015250565b60006133cd600283612bd8565b91506133d882613397565b600282019050919050565b60006133ee826132b6565b91506133fa8285612c2f565b915061340582613374565b91506134118284612c2f565b915061341c826133c0565b91508190509392505050565b7f646174613a6170706c69636174696f6e2f6a736f6e3b6261736536342c000000600082015250565b600061345e601d83612bd8565b915061346982613428565b601d82019050919050565b600061347f82613451565b915061348b8284612c2f565b915081905092915050565b60006040820190506134ab60008301856125b5565b6134b86020830184612445565b9392505050565b7f4552433732313a206f70657261746f7220717565727920666f72206e6f6e657860008201527f697374656e7420746f6b656e0000000000000000000000000000000000000000602082015250565b600061351b602c8361247a565b9150613526826134bf565b604082019050919050565b6000602082019050818103600083015261354a8161350e565b9050919050565b7f4552433732313a207472616e73666572206f6620746f6b656e2074686174206960008201527f73206e6f74206f776e0000000000000000000000000000000000000000000000602082015250565b60006135ad60298361247a565b91506135b882613551565b604082019050919050565b600060208201905081810360008301526135dc816135a0565b9050919050565b7f4552433732313a207472616e7366657220746f20746865207a65726f2061646460008201527f7265737300000000000000000000000000000000000000000000000000000000602082015250565b600061363f60248361247a565b915061364a826135e3565b604082019050919050565b6000602082019050818103600083015261366e81613632565b9050919050565b7f4e487b7100000000000000000000000000000000000000000000000000000000600052601160045260246000fd5b60006136af8261243b565b91506136ba8361243b565b9250828210156136cd576136cc613675565b5b828203905092915050565b60006136e38261243b565b91506136ee8361243b565b9250827fffffffffffffffffffffffffffffffffffffffffffffffffffffffffffffffff0382111561372357613722613675565b5b828201905092915050565b60006137398261243b565b91507fffffffffffffffffffffffffffffffffffffffffffffffffffffffffffffffff82141561376c5761376b613675565b5b600182019050919050565b60006137828261243b565b915061378d8361243b565b92508261379d5761379c612c82565b5b828204905092915050565b60006137b48284612c2f565b915081905092915050565b7f4552433732313a207472616e7366657220746f206e6f6e20455243373231526560008201527f63656976657220696d706c656d656e7465720000000000000000000000000000602082015250565b600061381b60328361247a565b9150613826826137bf565b604082019050919050565b6000602082019050818103600083015261384a8161380e565b9050919050565b7f4552433732314d657461646174613a2055524920717565727920666f72206e6f60008201527f6e6578697374656e7420746f6b656e0000000000000000000000000000000000602082015250565b60006138ad602f8361247a565b91506138b882613851565b604082019050919050565b600060208201905081810360008301526138dc816138a0565b9050919050565b60006138ee8261243b565b91506138f98361243b565b9250817fffffffffffffffffffffffffffffffffffffffffffffffffffffffffffffffff048311821515161561393257613931613675565b5b828202905092915050565b7f45524337323155524953746f726167653a2055524920736574206f66206e6f6e60008201527f6578697374656e7420746f6b656e000000000000000000000000000000000000602082015250565b6000613999602e8361247a565b91506139a48261393d565b604082019050919050565b600060208201905081810360008301526139c88161398c565b9050919050565b600060608201905081810360008301526139e981866124cf565b90506139f86020830185612445565b613a0560408301846125b5565b949350505050565b600081519050919050565b600082825260208201905092915050565b6000613a3482613a0d565b613a3e8185613a18565b9350613a4e81856020860161248b565b613a57816124be565b840191505092915050565b6000608082019050613a7760008301876125b5565b613a8460208301866125b5565b613a916040830185612445565b8181036060830152613aa38184613a29565b905095945050505050565b600081519050613abd816123ac565b92915050565b600060208284031215613ad957613ad8612376565b5b6000613ae784828501613aae565b91505092915050565b7f4552433732313a206d696e7420746f20746865207a65726f2061646472657373600082015250565b6000613b2660208361247a565b9150613b3182613af0565b602082019050919050565b60006020820190508181036000830152613b5581613b19565b9050919050565b7f4552433732313a20746f6b656e20616c7265616479206d696e74656400000000600082015250565b6000613b92601c8361247a565b9150613b9d82613b5c565b602082019050919050565b60006020820190508181036000830152613bc181613b85565b905091905056fe416e204e465420772f20494420257320686173206265656e206d696e74656420746f2025734142434445464748494a4b4c4d4e4f505152535455565758595a6162636465666768696a6b6c6d6e6f707172737475767778797a303132333435363738392b2fa2646970667358221220d3681fcbeb3cc95e150769f0733c6f440f3506af95d2458f7cb99892968354d464736f6c634300080900333c73766720786d6c6e733d27687474703a2f2f7777772e77332e6f72672f323030302f73766727207072657365727665417370656374526174696f3d27784d696e594d696e206d656574272076696577426f783d273020302033353020333530273e3c7374796c653e2e62617365207b2066696c6c3a2077686974653b20666f6e742d66616d696c793a2073657269663b20666f6e742d73697a653a20323470783b207d3c2f7374796c653e3c726563742077696474683d273130302527206865696768743d2731303025272066696c6c3d27272f3e3c7465787420783d273530252720793d273530252720636c6173733d27626173652720646f6d696e616e742d626173656c696e653d276d6964646c652720746578742d616e63686f723d276d6964646c65273e",
  "linkReferences": {},
  "deployedLinkReferences": {}
}